{
  "contractName": "Expenses",
  "abi": [
    {
      "inputs": [],
      "payable": false,
      "stateMutability": "nonpayable",
      "type": "constructor"
    },
    {
      "constant": true,
      "inputs": [],
      "name": "owner",
      "outputs": [
        {
          "internalType": "address",
          "name": "",
          "type": "address"
        }
      ],
      "payable": false,
      "stateMutability": "view",
      "type": "function"
    },
    {
      "constant": true,
      "inputs": [
        {
          "internalType": "uint256[]",
          "name": "expenses",
          "type": "uint256[]"
        }
      ],
      "name": "find2020",
      "outputs": [
        {
          "internalType": "uint256",
          "name": "",
          "type": "uint256"
        }
      ],
      "payable": false,
      "stateMutability": "pure",
      "type": "function"
    }
  ],
  "bytecode": "0x608060405234801561001057600080fd5b50336000806101000a81548173ffffffffffffffffffffffffffffffffffffffff021916908373ffffffffffffffffffffffffffffffffffffffff16021790555061025b806100606000396000f3fe608060405234801561001057600080fd5b50600436106100365760003560e01c80638da5cb5b1461003b578063ee8f1f9114610085575b600080fd5b610043610151565b604051808273ffffffffffffffffffffffffffffffffffffffff1673ffffffffffffffffffffffffffffffffffffffff16815260200191505060405180910390f35b61013b6004803603602081101561009b57600080fd5b81019080803590602001906401000000008111156100b857600080fd5b8201836020820111156100ca57600080fd5b803590602001918460208302840111640100000000831117156100ec57600080fd5b919080806020026020016040519081016040528093929190818152602001838360200280828437600081840152601f19601f820116905080830192505050505050509192919290505050610176565b6040518082815260200191505060405180910390f35b6000809054906101000a900473ffffffffffffffffffffffffffffffffffffffff1681565b600080600090505b600183510381101561021b5760006001820190505b835181101561020d576107e48482815181106101ab57fe5b60200260200101518584815181106101bf57fe5b6020026020010151011415610200578381815181106101da57fe5b60200260200101518483815181106101ee57fe5b60200260200101510292505050610221565b8080600101915050610193565b50808060010191505061017e565b50600090505b91905056fea265627a7a72315820fce30f214853c5531509e7fc5648fc3c5a5f90a1ee2452d372bd192b119a2d1564736f6c63430005100032",
  "source": "pragma solidity ^0.5.0;\n\ncontract Expenses {\n    address public owner;\n\n    constructor() public {\n        owner = msg.sender;\n    }\n\n    function find2020(uint[] memory expenses) public pure returns(uint) {\n        for (uint i=0; i<expenses.length-1;i++) {\n            for (uint k=i+1;k<expenses.length;k++) {\n                if (expenses[i] + expenses[k] == 2020) {\n                    return expenses[i] * expenses[k];\n                }\n            }\n        }\n        return 0;\n    }\n\n}",
  "sourcePath": "/home/chris/workspace/aoc2020/day1-solidity/contracts/Expenses.sol",
  "compiler": {
    "name": "solc",
    "version": "0.5.16+commit.9c3226ce.Emscripten.clang"
  },
  "schemaVersion": "3.3.4",
  "updatedAt": "2021-03-17T10:03:56.034Z",
  "networkType": "ethereum",
  "devdoc": {
    "methods": {}
  },
  "userdoc": {
    "methods": {}
  }
}